:020000040800F2
:1000000000000820594700086D1500086F1500080A
:100010007115000873150008751500080000000030
:10002000000000000000000000000000771500083C
:1000300079150008000000007B1500087D150008F8
:10004000A9470008A9470008A9470008A9470008D0
:10005000A9470008A9470008A9470008A9470008C0
:10006000A9470008A9470008A9470008A9470008B0
:10007000A9470008A9470008A9470008A9470008A0
:10008000A9470008A9470008A9470008A947000890
:10009000A9470008A9470008A9470008A947000880
:1000A000A9470008A9470008A9470008A947000870
:1000B000A9470008A9470008A9470008A947000860
:1000C000A9470008A9470008A9470008A947000850
:1000D000A9470008A9470008A9470008A947000840
:1000E000A9470008A9470008A9470008A947000830
:1000F000A9470008A9470008A9470008A947000820
:10010000A9470008A9470008A9470008A94700080F
:10011000A9470008A9470008A9470008A9470008FF
:10012000A9470008A9470008A9470008A9470008EF
:10013000A9470008A9470008A9470008A9470008DF
:10014000A9470008A9470008A94700088515000825
:10015000A9470008A9470008A9470008A9470008BF
:10016000A9470008A9470008A9470008A9470008AF
:10017000A9470008A9470008A94700080000000097
:10018000A9470008A9470008A9470008A94700088F
:10019000A9470008A9470008A9470008A94700087F
:1001A000A9470008A9470008A9470008A94700086F
:1001B000A9470008A9470008A9470008A94700085F
:1001C000A9470008A947000800000000A947000847
:1001D000A9470008A9470008A9470008A94700083F
:1001E000A9470008A9470008A9470008A94700082F
:0801F000A9470008A947000817
:1001F8000348044B834202D0034B03B118477047AE
:10020800B8010020B8010020000000000548064998
:100218000B1AD90F01EBA301491002D0034B03B10C
:1002280018477047B8010020B801002000000000FE
:1002380010B5064C237843B9FFF7DAFF044B13B126
:100248000448AFF300800123237010BDB8010020DB
:1002580000000000AC47000808B5044B1BB1044976
:100268000448AFF30080BDE80840CFE70000000075
:10027800BC010020AC47000870B50D4E0D4D761B33
:10028800B61006D00024013455F8043B9847A6421E
:10029800F9D1094E094D761B04F084FAB61006D040
:1002A8000024013455F8043B9847A642F9D170BDA3
:1002B8002448000824480008284800082448000862
:1002C800024B0146186800F04BB900BF000000203F
:1002D800024B0146186800F0EDB800BF000000208E
:1002E800844641EA000313F003036DD1403A41D339
:1002F80051F8043B40F8043B51F8043B40F8043BF8
:1003080051F8043B40F8043B51F8043B40F8043BE7
:1003180051F8043B40F8043B51F8043B40F8043BD7
:1003280051F8043B40F8043B51F8043B40F8043BC7
:1003380051F8043B40F8043B51F8043B40F8043BB7
:1003480051F8043B40F8043B51F8043B40F8043BA7
:1003580051F8043B40F8043B51F8043B40F8043B97
:1003680051F8043B40F8043B51F8043B40F8043B87
:10037800403ABDD2303211D351F8043B40F8043B27
:1003880051F8043B40F8043B51F8043B40F8043B67
:1003980051F8043B40F8043B103AEDD20C3205D337
:1003A80051F8043B40F8043B043AF9D2043208D02F
:1003B800D2071CBF11F8013B00F8013B01D30B88A1
:1003C80003806046704700BF082A13D38B078DD07F
:1003D80010F003038AD0C3F10403D21ADB071CBF51
:1003E80011F8013B00F8013B80D331F8023B20F8BB
:1003F800023B7BE7043AD9D3013A11F8013B00F8F4
:10040800013BF9D20B7803704B7843708B7883707B
:1004180060467047F0B4860746D0541E002A3CD088
:10042800CAB2034602E014F1FF3436D303F8012BB5
:100438009D07F8D1032C29D9CDB245EA05250F2C03
:1004480045EA054533D9A4F11006360903F120071A
:1004580007EB061703F1100242E9045542E9025579
:100468001032BA42F8D1721C14F00C0F03EB0212CE
:1004780004F00F0613D0331F23F00303043313448F
:1004880042F8045B9342FBD106F003042CB1C9B2D5
:100498001C4403F8011B9C42FBD1F0BC7047344656
:1004A8001346002CF3D1F8E714460346C2E71A4670
:1004B8002646E0E700293CD038B551F8043C0C1F2B
:1004C800002BB8BFE418054600F0C0F8234B1A68A3
:1004D8002AB1A2420DD921686018824223D06260F5
:1004E80028461C60BDE8384000F0B2B8A34203D8E3
:1004F8001A465368002BF9D111685018A04219D038
:1005080024D821686018834206D063605460284666
:10051800BDE8384000F09CB8D3E9000301446360AB
:1005280021605460F3E7D2E900020144626021606F
:10053800D6E7704720680144501883421160E6D11D
:10054800D3E90003014453601160E0E70C232B60FA
:100558002846BDE8384000F07BB800BFD401002031
:10056800F8B5CD1C25F0030508350C2D38BF0C2532
:10057800002D064633DBA94231D82A4F00F066F831
:100588003A6852B113685B1B04D43FE023685B1BD5
:1005980029D522465468002CF8D1796800293BD027
:1005A8002946304600F040F8431C28D0C41C24F0EB
:1005B8000304A04205D0211A304600F035F8013076
:1005C8001DD02560304600F043F804F10B0020F000
:1005D8000700231DC21A01D01B1AA350F8BD0C2214
:1005E80032600020F8BD0B2B05D8A242636811D0F9
:1005F8005360E7E7144623601C442560E2E70C23B8
:100608003046336000F024F80020F8BD0B2BF1D8F9
:10061800536814463B60D5E7304600F005F878602B
:10062800BEE700BFD401002038B5074C00230546BB
:100638000846236000F00EF8431C00D038BD23683C
:10064800002BFBD02B6038BDC82A0020704700BFA4
:10065800704700BF044A05491368002B08BF0B46C2
:100668001844106018467047DC010020D02A00208A
:1006780053B94AB9002908BF00281CBF4FF0FF3101
:100688004FF0FF3000F06EB9ADF1080C6DE904CE03
:1006980000F006F8DDF804E0DDE9022304B0704755
:1006A8002DE9F047089D04468C46002B40F08380D6
:1006B8008A42174647D9B2FA82F242B1C2F1200003
:1006C80024FA00F09140974040EA010C94404FEA28
:1006D8001748230CBCFBF8F61FFA87FE08FB16C167
:1006E80043EA014306FB0EF1994209D9FB1806F1CA
:1006F800FF3080F01981994240F21681023E3B4456
:100708005B1AA4B2B3FBF8F008FB103344EA0344C5
:1007180000FB0EFEA64509D93C1900F1FF3380F015
:100728000581A64540F2028102383C4440EA064071
:10073800A4EB0E0400261DB1D4400023C5E90043F4
:100748003146BDE8F08702B9FFDEB2FA82F2002A2C
:1007580050D1CB1B4FEA174E1FFA87F80126B3FB7F
:10076800FEFC210C0EFB1C3341EA034108FB0CF391
:100778008B4207D979180CF1FF3002D28B4200F274
:10078800E9808446C91AA3B2B1FBFEF00EFB101132
:1007980043EA014408FB00F8A04507D93C1900F1D9
:1007A800FF3302D2A04500F2D9801846A4EB080412
:1007B80040EA0C40BFE78B4209D9002D00F0B18018
:1007C8000026C5E9000130463146BDE8F087B3FA96
:1007D80083F6002E4AD18B4202D3824200F2B880BF
:1007E800841A61EB030101208C46002DA8D0C5E9CD
:1007F800004CA5E7C2F1200320FA03F6974001FA5E
:1008080002F04FEA174ED9403043030CB1FBFEF615
:100818001FFA87F80EFB161143EA014306FB08F19D
:10082800994204FA02F409D9FB1806F1FF3C80F05A
:100838008D80994240F28A80023E3B445B1A81B225
:10084800B3FBFEF00EFB103341EA034100FB08F353
:100858008B4207D9791800F1FF3C73D28B4271D9CA
:1008680002383944CB1A40EA064678E7C6F1200C2C
:1008780003FA06F422FA0CF31C4320FA0CF701FAE7
:1008880006F34FEA144E21FA0CF11F433B0CB1FB5F
:10089800FEF91FFA84F80EFB191143EA014109FB1E
:1008A80008FA8A4502FA06F200FA06F308D961182E
:1008B80009F1FF3048D28A4546D9A9F102092144F5
:1008C800A1EB0A01BFB2B1FBFEF00EFB101147EA23
:1008D800014700FB08F8B84507D9E71900F1FF31CF
:1008E8002ED2B8452CD90238274440EA0940A7EB54
:1008F8000807A0FB02894F45C64649461AD317D0B8
:100908005DB1B3EB0E0267EB010707FA0CFCF2408E
:100918004CEA0202F740C5E9002700263146BDE847
:10092800F0872E4628460BE70646E9E61846FDE618
:100938004345E5D2B8EB020E69EB04010138DFE765
:100948000846D2E760468DE78146B9E7664675E70F
:1009580030464AE7ACF1020C394413E702383C440C
:1009680024E700BF704700BF2DE9F04F8DB0002489
:100978000794089409940A940B94584B1A6B42F004
:1009880004021A631A6B02F004020192019A1A6BAC
:1009980042F080021A631A6B02F080020292029AF5
:1009A8001A6B42F001021A631A6B02F001020392F9
:1009B800039A1A6B42F002021A631A6B02F00202DF
:1009C8000492049A1A6B42F008021A631A6B02F036
:1009D80008020592059A1A6B42F040021A631B6BD3
:1009E80003F040030693069BDFF80491224644F285
:1009F8008101484603F06AF8394F224640213846BB
:100A080003F064F84FF4005BCDF81CB0354B089345
:100A18000994DFF8E0A007A9504602F067FF3223E7
:100A2800079302260896099403250A954FF00B08A8
:100A3800CDF82C8007A9504602F058FF862307936B
:100A4800089609940A95CDF82C8007A9264802F043
:100A58004DFF44F2810307934FF0010ACDF820A01F
:100A680009940A9407A9484602F040FFCDF81CB043
:100A7800089609940A95CDF82C8007A9484602F0F3
:100A880035FF4FF440730793089609940A95072396
:100A98000B9307A9154802F029FF40230793CDF8C7
:100AA80020A009940A9407A9384602F01FFF802362
:100AB80007930894099407A9384602F017FF4FF4E2
:100AC80020530793089609940A95CDF82C8007A916
:100AD800384602F00BFF0DB0BDE8F08F0038024039
:100AE800001802400000111000000240000C0240F3
:100AF800000402400008024008B501224FF480417A
:100B0800014802F0E3FFFEE70004024000B5B9B077
:100B1800342200212BA8FFF77DFC00212691279184
:100B2800289129912A91902202A8FFF773FC2F4B54
:100B38001A6C42F080521A641B6C03F080530093C5
:100B4800009B2B4B1A6842F440421A601B6803F45E
:100B580040430193019B01232B934FF4A0232C9333
:100B6800022331934FF480023292082233924FF4D9
:100B7800D87234923593092336932BA802F074F86F
:100B880060BB02F0A9FF58BB0F23269302232793CB
:100B9800002328934FF4A05329934FF480532A93AA
:100BA800072126A802F0E8FAE0B94FF400130293EF
:100BB8004FF4C073079302230993089303230A93FE
:100BC80001230C9300230D934FF00063219302A897
:100BD80002F08EFB40B939B05DF804FBFFF78CFFDB
:100BE800FFF78AFFFFF788FFFFF786FF003802400C
:100BF8000070004000B58BB003F03AF8FFF786FFAD
:100C0800FFF7B2FE00F02CF807E089B206A800F062
:100C180069FC0FE0642003F049F8102301932E23A8
:100C28008DF8183001A906A800F070FC10B90199D8
:100C38000029EAD1642003F039F8102301932E2308
:100C48008DF8083001A902A800F060FC0028E1D165
:100C580001990029DED089B202A800F02FFCD9E75B
:100C680010B5094C01220949204603F05BF80849F0
:100C7800204603F073F80749204600F047FB20465A
:100C880003F080F810BD00BFE401002064000020DC
:100C9800C40000209801002008B5FFF737FF08BD01
:100CA80070B588B0002303930493059306930793C4
:100CB8000368B3F1A04F01D008B070BD1E4C236B80
:100CC80043F001032363236B03F001030093009BAC
:100CD8004FF4E85303930223049300250595032357
:100CE80006930A230793154E03A9304602F0FEFD2A
:100CF8004FF4007303930495059503A9304602F059
:100D0800F5FD636B43F080036363636B03F080035B
:100D18000193019B636C43F480436364636C03F445
:100D280080430293029B2A462946432002F024FF6F
:100D3800432002F053FFBFE70038024000000240A2
:100D480008B500F57171D0F8000403F030F808BD5B
:100D580008B5C1EBC10300EB8303D3F80822D0F830
:100D6800000403F050F808BD08B5C1EBC10300EB5F
:100D780083039A6CD0F8000403F07EF808BD08B528
:100D8800D0F8000403F014F908BD10B50446C36890
:100D98003BB1022B01D1012104E0FFF7ADFE012197
:100DA80000E00021D4F8000403F0EBF8D4F80004C4
:100DB80003F0BEF810BD000010B50446D0F80004DA
:100DC80003F0E2F82268D2F8003E43F00103C2F8CB
:100DD800003E236A23B1034A136943F006031361F3
:100DE80010BD00BF00ED00E008B5D0F8000403F026
:100DF800D4F808BD08B5D0F8000403F0E9F808BD38
:100E080008B5D0F8000403F0E1F808BD08B5D0F83B
:100E1800000403F0DFF808BD08B5D0F8000403F0BB
:100E2800DBF808BD0378012B01D00020704710B50E
:100E38001B4BC3F80004C0F8C4324FF0A0421A603C
:100E480006225A600221D96000221A619961DA618A
:100E58001A625A62DA621A63184600F018FCE0B99E
:100E68000F4C8021204601F072F9402200212046D3
:100E780001F049F980220121204601F044F94FF49C
:100E8800BA720121204601F03EF94FF4BA720321EB
:100E9800204601F038F9002010BDFFF72DFEDFE7EE
:100EA800B8040020D0F8C43211F0800F08D101F046
:100EB8007F01C1EBC10103EB810191F8FE0170478D
:100EC80001F07F01C1EBC10103EB810191F83E0004
:100ED800704708B5D0F8C40201F062F808BD0000F8
:100EE80010B5044611B1012916D010BD036A5BB9CB
:100EF8002268D2F8003E23F00103C2F8003ED4F87D
:100F0800000403F04AF8F0E7FFF7C6FE0C4A13693D
:100F180023F006031361EBE70268D2F8003E43F0C2
:100F28000103C2F8003ED0F8000403F02DF8236A4C
:100F3800002BDAD0024A136943F006031361D4E7A1
:100F480000ED00E0032805D8DFE800F005040205FD
:100F5800012070470320704708B5D0F8C40200F09C
:100F680030FCFFF7EFFF08BD10B514461A462346BC
:100F7800D0F8C40200F069FFFFF7E4FF10BD08B520
:100F8800D0F8C40200F0A4FFFFF7DCFF08BD08B5E5
:100F9800D0F8C40201F038F8FFF7D4FF08BD08B54F
:100FA800D0F8C40201F074F8FFF7CCFF08BD08B50B
:100FB800D0F8C40200F035FFFFF7C4FF08BD08B53C
:100FC800D0F8C40200F0F5FFFFF7BCFF08BD08B574
:100FD800D0F8C40200F0B5FFFFF7B4FF08BD000069
:100FE80012230B80004870479000002004230B80D8
:100FF80000487047A40000200C230B80004870476D
:10100800840000200023934217D230B40BE0373419
:1010180001F8134000015C00013400250D5501332F
:10102800DBB2934207D2040FB0F1204FEFD2303435
:1010380001F81340EEE730BC7047704738B50A4BEB
:10104800186804331C6804331B68C01800D138BD05
:10105800064D0822A91CFFF7D5FF042205F112014D
:101068002046FFF7CFFFF2E720F4F01FA80000208A
:1010780008B51A230B80FFF7E1FF014808BD00BF40
:10108800A800002008B50A4628B90549054803F014
:1010980002FB034808BD0249024803F0FCFAF8E7DE
:1010A800BC080020C447000810B50A46034C214676
:1010B800034803F0F0FA204610BD00BFBC0800202A
:1010C800DC47000808B50A4628B90549054803F071
:1010D800E2FA034808BD0249024803F0DCFAF8E7DF
:1010E800BC080020F047000808B50A4628B9054999
:1010F800054803F0D0FA034808BD0249024803F046
:10110800CAFAF8E7BC080020FC470008D0F8BC324F
:1011180053B1012918BF812903D100225A65002043
:1011280070470022DA66FAE70320704710B5D0F856
:10113800BC42D0F8C0325BB194F84000FF2807D019
:101148009B6894F8412021469847FF2384F8403053
:10115800002010BD8D23038000487047FC0000204C
:101168008D23038000487047FC0000200A23038079
:10117800004870478C01002038B5D0F8BC52DDB16A
:101188000446012918BF81290BD1FFF7A2FE294681
:1011980041F84C0FD4F8C032DB68686C98470020DF
:1011A80038BDFFF796FE294641F8640FD4F8C032DF
:1011B8001B69E86D9847F2E70320F1E770B505462B
:1011C8000C46D0F8BC620B7813F0600224D0202AB9
:1011D80025D1CA88CAB113F0800F0BD0D0F8C0321D
:1011E8009B68314660789847E2883146284603F084
:1011F8006DFA14E04B7886F84030CB8886F8413099
:10120800CA88314603F077FA09E0D0F8C0329B6803
:1012180000224878984702E04B780A2B01D000203A
:1012280070BD0122014903F051FAF8E7E0010020FE
:1012380010B504468121FFF7A2FE01212046FFF7E1
:101248009EFE82212046FFF79AFE83212046FFF763
:1012580096FE03212046FFF792FE84212046FFF7E1
:101268008EFED4F8BC3253B1D4F8C0325B689847CC
:10127800D4F8BC02FFF72CF80023C4F8BC320020D5
:1012880010BD70B50446402302228121FFF76CFE91
:101298004023022201212046FFF766FE082303228D
:1012A80082212046FFF760FE402302228321204648
:1012B800FFF75AFE4023022203212046FFF754FE7F
:1012C8000823032284212046FFF74EFE7420FEF7F0
:1012D800F7FFC4F8BC02B8B10546D4F8C0321B68A1
:1012E800984700266E65AE65EE662E6740236A6CE9
:1012F80001212046FFF76BFE4023EA6D03212046BB
:10130800FFF765FE304670BD0120FCE719B1C0F853
:10131800C0120020704703207047D0F8BC3299648F
:101328001A6500207047D0F8BC3219669A6600200A
:101338007047D0F8BC32596400207047D0F8BC32EE
:10134800D96500207047D0F8BC226AB108B5536D42
:101358000BB1012008BD01235365136D926C8121E7
:10136800FFF72DFE0020F5E703207047D0F8BC22D8
:101378006AB108B5D36E0BB1012008BD0123D3664D
:10138800936E126E8321FFF71AFE0020F5E7032003
:101398007047D0F8BC2282B108B5037C3BB94FF442
:1013A8000073526C0121FFF712FE002008BD402394
:1013B800526C0121FFF70BFEF7E703207047D0F8C6
:1013C800BC2282B108B5037C3BB94FF40073D26DDF
:1013D8000321FFF7FCFD002008BD4023D26D032147
:1013E800FFF7F5FDF7E70320704700207047212835
:1013F80001D00020704780230B7025234B700023F9
:101408008B70CB700B714B7108238B71F1E7000067
:1014180038B50C460968074D01442846FFF78EFF8A
:101428002168054A13680B4413602846FFF7C7FF75
:10143800002038BDE4010020C022002038B50C4649
:101448000968074D01442846FFF773FF2168054ADC
:1014580013680B4413602846FFF79BFF002038BD34
:10146800E4010020BC12002038B50D4D00220D49C2
:101478002846FFF752FF0C492846FFF75AFF002479
:101488000A4B1C6022460A492846FFF74CFF0949C7
:101498002846FFF753FF084B1C60204638BD00BFA5
:1014A800E4010020C0120020C01A0020BC12002055
:1014B800BC0A0020C4220020C0220020084BD3F818
:1014C800BC325B6D0BB10120704710B5044C0A4665
:1014D80001462046FFF721FF2046FFF734FF10BDE5
:1014E800E4010020084BD3F8BC32DB6E0BB10120BD
:1014F800704710B5044C0A4601462046FFF713FF13
:101508002046FFF733FF10BDE401002038B50C4634
:101518000A68114B1B689A4200D90B6022680AB905
:10152800002038BD0D49FEF7DBFE0B4B1B68216818
:101538005C1A0BD1084B1C60094D08492144284608
:10154800FFF7F7FE2846FFF724FFE9E7034822469E
:101558000144FEF7C5FEEDE7BC120020C01A0020CA
:10156800E40100207047FEE7FEE7FEE7FEE770476C
:101578007047704708B502F087FB08BD08B50248F8
:1015880000F0D8F908BD00BFB804002082B00A4BAB
:101598001A6C42F080521A641A6C02F0805200925F
:1015A800009A5A6C42F480425A645B6C03F480439C
:1015B8000193019B02B07047003802402DE9F047C3
:1015C80082B0D0F80080C1EBC10300EB83035A6DF1
:1015D8001B6D9A4255D807460C46C1469B1AC1EB6B
:1015E800C10200EB8202526C9A4200D31A4602F101
:1015F800030A4FEA9A0A15E006F1030A4FEA9A0A23
:10160800C4EBC40507EB8505A96C3B7C0093B3B21A
:10161800E2B2404601F0FCF8AB6C3344AB646B6D4E
:101628001E446E6509EB441303F510639B699BB276
:10163800534512D3C4EBC40207EB8202516D136DFC
:1016480099420AD24BB15B1AC4EBC40207EB82027F
:10165800566C9E42D0D31E46CEE7C4EBC40007EBBF
:1016680080073A6D7B6D9A420FD804F00F0401236E
:10167800A340D8F8344824EA0304C8F834480020C2
:1016880000E0012002B0BDE8F0870020FAE7F0B5DD
:101698008BB0002800F093800546046890F8BD33AD
:1016A8002BB3032385F8BD33E36B13F4807F01D19B
:1016B80000232B61286800F037FE2C4654F8107B75
:1016C8006E460FCC0FC60FCC0FC694E8030086E811
:1016D80003002B1D0ECB384600F070FD044658B1B0
:1016E800022385F8BD33012420460BB0F0BD80F8F5
:1016F800BC33FFF7D5FAD4E70021286800F01AFEBA
:10170800234616E0C3EBC30205EB8202012182F8EF
:101718003D1082F83C30A2F84230002182F83F1098
:1017280051649164C3EBC30205EB82021165013376
:10173800DBB269688B42E5D316E0C4EBC40305EB62
:101748008303002283F8FD2183F8FC4183F8FF21FD
:10175800C3F80422C3F80822C4EBC40305EB8303CF
:10176800C3F810220134E4B2A142E6D82C4654F85A
:10177800107B6E460FCC0FC60FCC0FC694E8030043
:1017880086E803002B1D0ECB384600F019FE0446F0
:1017980060B9002385F83830012385F8BD336B6ABA
:1017A800012B08D0286801F0DBF99DE7022385F8B2
:1017B800BD33012498E7284600F0CEFCF2E7012467
:1017C80092E790F8BC33012B0ED010B504460123E4
:1017D80080F8BC33006800F0A1FD206801F0B2F980
:1017E800002084F8BC0310BD0220704770B5044681
:1017F8000D460068066C00EB411303F530639A68E8
:101808002169012911D035498E4250D03DB9C5EB27
:10181800C50304EB8303D3F81032002B58D0E9B288
:101828002046FFF795FA002070BD12F0080F09D086
:101838002B498E42F7D912F4004FF4D04FF40042EE
:101848009A60F0E712F0200F02D020229A60EAE7AF
:1018580012F0280FE7D122498E4206D912F4004F20
:1018680003D04FF400429A60DDE7C5EBC50204EBF4
:101878008202D2F804121B69C3F31203C91AC2F810
:101888001412D2F80412D2F808320B44C2F8083203
:1018980015B9D2F8103223B1E9B22046FFF758FA49
:1018A800C1E704F57172012101F0AEF9F4E712F411
:1018B800004F03D04FF400429A60B4E712F0200FB3
:1018C80001D020229A60E9B22046FFF741FAAAE740
:1018D80004F57172002101F097F9A0E70A31544F1D
:1018E8000A30544F38B5044603681D6C03EB4113A6
:1018F800D3F8081B0E4A954207D903F5306311F453
:10190800004F02D04FF400429A602046FFF718FAC1
:10191800074B9D4202D92369012B01D0002038BD15
:1019280004F571720121206801F06EF9F6E700BF35
:101938000A30544F2DE9F04F83B004460568284615
:1019480001F04DF910B103B0BDE8F08F2F460646FF
:10195800206801F013F90028F5D0206801F00EF98D
:1019680010F0020F04D02268536903F00203536198
:10197800206801F003F910F0100F15D02268936960
:1019880023F010039361D5F8208008F00F09C8F3FD
:101998004343022B00F08580062B00F0AA802268C2
:1019A800936943F010039361206801F0E7F810F49D
:1019B800002F40F0B080206801F0E0F810F4802F8C
:1019C80040F0F480206801F0D9F80028C0F2608166
:1019D800206801F0D3F810F4006F0AD0D5F8083861
:1019E80013F0010F40F06E812268536903F400631D
:1019F8005361206801F0C2F810F0006F15D022681A
:101A0800536903F00063536194F8F433002B40F0FA
:101A18005D81012184F8F41323685B6DC3F38303AC
:101A2800C4F8F8332046FFF75BFA206801F0A6F8FF
:101A380010F4805F40F04E81206801F09FF810F4A8
:101A4800005F40F0AC81206801F098F810F0080FB2
:101A580040F0BD81206801F091F810F4801F40F03B
:101A6800BF81206801F08AF810F4001F40F0C2819D
:101A7800206801F083F810F0804F40F0C58120689D
:101A880001F07CF810F0040F3FF45DAF23685D6847
:101A980015F0040F40F0C181226853682B4353604E
:101AA80051E747F6F07318EA030F3FF478AF4FEAAF
:101AB800181B4FEAC9030193C9EBC90A04EB8A0A48
:101AC800C8F30A12DAF80812284600F0BFFFCBF371
:101AD8000A0BDAF808325B44CAF80832019BA3EB18
:101AE800090304EB8303D3F814325B44CAF81432B5
:101AF80055E7082204F57171284600F0A7FFC8F3DE
:101B08000A18C9EBC90204EB8202D2F81432434422
:101B1800C2F8143243E7206801F034F88046B14631
:101B280017E007EB49130122C3F8082B4946204662
:101B3800FFF75CFE1DE007EB49130822C3F8082BEA
:101B480049462046FFF7CEFE16E009F101094FEAA3
:101B58005808B8F1000F3FF42EAF18F0010FF4D079
:101B68005FFA89F1206801F01DF8824610F0010F34
:101B7800D7D11AF0080FDED11AF0100F04D007EBF6
:101B880049131022C3F8082B1AF0200F04D007EBD2
:101B980049132022C3F8082B1AF4005FD5D007EBAD
:101BA80049134FF40052C3F8082BCEE7206800F021
:101BB800F1FF8046B1462AE059462046FFF7D4F89F
:101BC8001AF0080F04D007EB49130822C3F80829B4
:101BD8001AF0100F04D007EB49131022C3F8082994
:101BE8001AF0400F04D007EB49134022C3F8082924
:101BF8001AF0020F04D007EB49130222C3F8082990
:101C08001AF0800F3FD109F101094FEA5808B8F1DD
:101C1800000F3FF4D7AE18F0010FF4D05FFA89FB3C
:101C28005946206800F0C7FF824610F0010FC7D060
:101C380009F00F03012101FA03F2D7F8343823EA37
:101C48000203C7F8343807EB4913C3F808192369A6
:101C58008B42B1D1C9EBC90304EB8303596C9A6C6D
:101C68000A449A64B9F1000FA6D1C9EBC90304EB81
:101C780083031B6D002B9FD104F57172012120682D
:101C880000F0C2FF98E749462046FFF797FCBAE7FD
:101C9800D5F8043823F00103C5F8043894F8F43370
:101CA800012B08D02046FFF79FF82268536903F0FC
:101CB800004353618CE6002184F8F4132046FFF7B3
:101CC8000FF9F2E72046FFF777F88DE62046FFF791
:101CD80073F8AAE605F50068D8F8043023F0010384
:101CE800C8F804301021206800F03CFB20E007EB26
:101CF80046134FF67F31C3F80819D3F8002922F4A8
:101D08000012C3F80029D3F8002942F00062C3F892
:101D18000029C3F8081BD3F8002B22F40012C3F8DB
:101D2800002BD3F8002B42F00062C3F8002B0136D9
:101D38006368B342DBD8D8F81C3043F00113C8F805
:101D48001C30236BEBB1D8F8843043F00B03C8F890
:101D58008430D8F8443043F00B03C8F84430D5F841
:101D6800003823F4FE63C5F8003804F57172217C4D
:101D7800206800F049FF2268536903F480535361D7
:101D88005AE6D8F8142042F22B031343C8F814304B
:101D9800D8F8103043F00B03C8F81030DFE720689C
:101DA80000F022FF206800F0E1FBE060256801F008
:101DB80099FA0146227B284600F03EFA2046FEF7B3
:101DC800E4FF2268536903F4005353613BE620465D
:101DD800FEF7D5FF2268536903F00803536139E61B
:101DE80000212046FFF70CF82268536903F480139A
:101DF800536136E600212046FEF7FCFF226853694E
:101E080003F40013536133E62046FEF7FFFF226810
:101E1800536903F08043536131E62046FEF7FCFF27
:101E28003AE690F8BC33012B0DD010B504460123D7
:101E380080F8BC3380F83810006800F073FE00208A
:101E480084F8BC0310BD02207047F8B507460C465D
:101E580011F0800F27D101F00F05C5EBC506B600BC
:101E680006F5FC760644311DC5EBC50500EB850576
:101E7800002085F8FD0104F00F040C708A60CB7017
:101E88004A7802B1CC80022B1DD097F8BC33012BC5
:101E98001CD0012387F8BC33386800F077FB00209A
:101EA80087F8BC03F8BD01F00F00C0EBC001890042
:101EB800383139440431C0EBC00007EB80000125FC
:101EC80080F83D50D7E700230B71DEE70220E9E7F1
:101ED80010B504460A4611F0800F20D101F00F001A
:101EE800C0EBC0039B0003F5FC732344191DC0EB32
:101EF800C00004EB8000002380F8FD3102F00F02DF
:101F08000A7094F8BC33012B19D0012384F8BC3330
:101F1800206800F083FB002084F8BC0310BD01F0AA
:101F28000F00C0EBC0039B0038332344191DC0EBDE
:101F3800C00004EB8000012380F83D30DEE702207A
:101F4800ECE738B501F00F04C4EBC401890001F5D2
:101F5800FC7101440431C4EBC40500EB8505C5F8E8
:101F68000822C5F810320023C5F8143285F8FD316F
:101F780085F8FC410369012B06D064B9DAB2006820
:101F880000F0BAFB002038BDC4EBC40500EB8505A2
:101F9800C5F80C22F1E7DAB2006800F04DFCF1E771
:101FA80001F00F01C1EBC10100EB8101D1F814026E
:101FB800704738B501F00F04C4EBC401890038310B
:101FC80001440431C4EBC40500EB8505AA642B6504
:101FD80000236B65012385F83D3085F83C40036993
:101FE800012B06D05CB9DAB2006800F085FB00204E
:101FF80038BDC4EBC40500EB8505EA64F2E7DAB244
:10200800006800F019FCF2E738B501F00F054268E6
:10201800954239D804460B4611F0800F1FD1C1EB09
:10202800C101890001F5FC7101440431C3EBC3030C
:1020380000EB8303002283F8FD2101238B700D70D0
:1020480094F8BC33012B21D0012384F8BC332068D9
:1020580000F00DFD8DB1002084F8BC0338BDC5EB40
:10206800C5018900383101440431C5EBC50300EBD3
:102078008303012283F83D20DFE704F57172217C98
:10208800206800F0C1FDE6E70120E7E70220E5E768
:1020980001F00F034268934231D810B5044611F09D
:1020A800800F1ED1C3EBC301890001F5FC71014407
:1020B8000431C3EBC30200EB8202002082F8FD0169
:1020C80000228A700B7094F8BC33012B19D00123BD
:1020D80084F8BC33206800F0F7FC002084F8BC03C7
:1020E80010BDC3EBC3018900383101440431C3EB8F
:1020F800C30200EB8202012082F83D00E0E70120E4
:1021080070470220ECE730B40468606A19B940EA05
:102118000240A06218E00D46A36A00EB13400023BA
:10212800691E8B4209D203F1400104EB8101496821
:1021380000EB11400133DBB2F2E740EA024005F15F
:102148003F0104EB81014860002030BC7047036800
:102158005962002070470000034602680121C0F858
:10216800FC13002083F8F403936943F00063936140
:10217800516D024B0B435365704700BF03000010BD
:10218800002301330C4A934211D80269002AF8DA75
:10219800036943F00103036100230133064A9342B4
:1021A80007D8026912F0010FF7D100207047032009
:1021B80070470320704700BF400D030084B010B57E
:1021C800044603A880E80E00089B012B1DD1A36BD1
:1021D80023F48033A363E268164B1340E360E3689B
:1021E80023F44013E3600F9B012B09D02046FFF72F
:1021F800C7FF069B012B14D0BDE8104004B0704700
:10220800E36843F48013E360F0E7E36843F04003D6
:10221800E3602046FFF7B4FFA36B43F48033A36366
:10222800E7E7A36843F00603A360A36843F020032D
:10223800A360E1E7BFFFBDFF022A0AD00921C268F7
:1022480022F47052C260C36843EA8123C36000204D
:102258007047204B0B44204A934229D91F4B0B440B
:102268001F4A934226D91F4B0B441F4A934223D936
:102278001E4B0B441E4A934220D31E4B0B441E4A4E
:1022880093421DD91D4B0B441D4A93421AD31D4B33
:102298000B441D4A934217D31C4B0B441C4A9342D0
:1022A80014D31C4B0B441C4A934211D20721C6E796
:1022B8000F21C4E70E21C2E70D21C0E70C21BEE7BC
:1022C8000B21BCE70A21BAE70921B8E70821B6E7DC
:1022D8000621B4E7405327FFFF340C00401E1BFFC4
:1022E8003F420F0000DC0BFF7F4F1200808CF9FE8D
:1022F80020D6130060B6E5FE5FE3160000D3CEFEDD
:1023080040771B00C05BB3FEC091210000CA91FE5C
:1023180020753800E05459FEE09C4100836843F082
:102328000103836000207047836823F00103836002
:102338000020704708B5C36823F0C043C360012973
:1023480009D069B9C36843F08043C360322001F003
:10235800ADFC002008BDC36843F00053C360F5E737
:102368000120F7E7890141F02001016100230133D1
:10237800054A934205D8026912F0200FF7D10020D0
:1023880070470320704700BF400D0300102303610E
:1023980000230133054A934205D8026912F0100F51
:1023A800F7D1002070470320704700BF400D03009D
:1023B800D0F800381943C0F8001800207047000012
:1023C80084B02DE9F843044609A880E80E002546A4
:1023D800002306E003F1400204EB82020021516071
:1023E80001330E2BF6D9DDF84C80B8F1000F26D159
:1023F800D4F8043843F00203C4F80438A36B23F478
:102408000013A363236843F040032360236843F069
:10241800800323600023C4F8003E04F50066D4F866
:102428000038C4F800380E9B012B0DD0032B1CD1AB
:102438000B9BABB900212046FFF7BAFF19E0A36B4D
:1024480043F40013A363E5E70B9B23B9002120465F
:10245800FFF7AEFF0DE001212046FFF7A9FF08E0D6
:1024680001212046FFF7A4FF03E003212046FFF7E0
:102478009FFF10212046FFF775FF814608B14FF0F6
:1024880001092046FFF782FF08B14FF00109002338
:1024980033617361F3610AE0C3B94FF00060C2F8B9
:1024A800000900220A614FF67F328A600133099FD2
:1024B8009F4210D905EB431202F51061D2F80009CA
:1024C8000028E9DB0020C2F80009EAE74FF0904055
:1024D800C2F80009E5E700230AE0BBB14FF09040DD
:1024E800C2F8000B00220A614FF67F328A6001337E
:1024F8009F4210D905EB431202F53061D2F8000B68
:102508000028EADB0020C2F8000BEBE74FF0006080
:10251800C2F8000BE6E7336923F4807333610023C4
:10252800A3616FF0804363610C9B1BB9A36943F0FF
:102538001003A361A2690B4B1343A3610F9B1BB14B
:10254800A36943F00803A361B8F1010F04D048461A
:10255800BDE8F84304B07047A269034B1343A36175
:10256800F5E700BF00383C8004000040D0F8083888
:1025780013F0060305D0062B18BF022B03D1022047
:102588007047002070470F207047000070B40C7827
:102598004B78012B20D0D0F81C3804F00F0601220C
:1025A800B24043EA0243C0F81C3800EB4410D0F8AC
:1025B800003B13F4004F0CD1D0F8002B8B68C3F309
:1025C8000A03C97843EA81431343134A1A43C0F8FC
:1025D800002B002070BC7047D0F81C2804F00F06B0
:1025E800B3409BB21343C0F81C3800EB4410D0F83A
:1025F800003913F4004FECD1D0F800298B68C3F3ED
:102608000A03C97843EA814343EA84541443024BDA
:102618002343C0F80039DCE70080001030B40B78A1
:102628004A78012A24D000EB4313D3F8002B002A60
:1026380050DBD0F83C580A7802F00F02012404FA63
:1026480002F225EA0242C0F83C28D0F81C28097892
:1026580001F00F018C4022EA0444C0F81C48D3F86A
:10266800001B234A0A40C3F8002B002030BC7047E7
:1026780000EB4313D3F80029002A1EDBD0F83C589E
:102688000A7802F00F02012404FA02F292B225EA53
:102698000202C0F83C28D0F81C28097801F00F0184
:1026A8008C40A4B222EA0404C0F81C48D3F80019EC
:1026B800104A0A40C3F80029D7E7D3F8002942F0A6
:1026C8000062C3F80029D3F8002942F08042C3F819
:1026D8000029D3E7D3F8002B42F00062C3F8002B9F
:1026E800D3F8002B42F08042C3F8002BA1E700BFCB
:1026F8000078F3EF007833EC70B40B784C78012C49
:1027080024D000EB431000F530631D693E4C2C408B
:102718001C611D693D4C2C401C614C690CB18C68D6
:102728004C611C6944F400241C611C698D68C5F364
:1027380012052C431C61012A61D0D0F8003B43F0FC
:102748000443C0F8003B002070BC70474C695CBB78
:1027580000EB4314D4F810692C4D3540C4F81059D7
:10276800D4F8105945F40025C4F81059D4F8106964
:10277800254D3540C4F81059012A31D000EB4313D8
:10278800D3F8002942F00442C3F800294B69002B12
:10279800D9D0D0F834380A7802F00F0101228A40E3
:1027A8001343C0F83438CEE700EB431404F5106443
:1027B8002669154D354025612669144D354025613A
:1027C8004E698D68AE4200D94D61256945F40025F2
:1027D800256125694E69C6F3120635432561CBE7A5
:1027E8000A691AB100EB4311C1F8142900EB431030
:1027F800D0F8002942F00442C0F80029A3E7CA68CB
:10280800002A9AD05A6198E70000F8FFFFFF07E016
:1028180070B49DF80C4064B903339D08AC4208D2EB
:1028280000EB023303F5805351F8046B1E6001344A
:10283800F4E7002070BC7047F0B583B00B784C7893
:10284800012C29D000EB431303F5306426697C4D35
:102858003540256126697B4D354025614D69002D40
:1028680040F0BF8025698E68C6F31206354325619E
:10287800256945F400252561012A00F0C780CA783A
:10288800012A00F0C980D3F8002B42F00442C3F8B3
:10289800002B002003B0F0BD4C6974BB00EB43145F
:1028A800D4F81069674D3540C4F81059D4F8105958
:1028B80045F40025C4F81059D4F81069604D354026
:1028C800C4F81059012A4AD000EB4313D3F8004941
:1028D80044F00444C3F80049CC78012C68D04B6913
:1028E800002BD6D0D0F83428097801F00F04012144
:1028F800A1400A43C0F83428CBE700EB4314D4F8CE
:1029080010694F4D3540C4F81059D4F810694D4D31
:102918003540C4F81059D4F810694D698F683D44A2
:10292800013DB5FBF7F5484F07EAC5453543C4F8FF
:102938001059D4F810594E69C6F312063543C4F835
:10294800105904F51064CD78012DBBD1256925F007
:10295800C0452561256945F000552561B2E70A693A
:102968001AB100EB4314C4F81429CA78012A08D014
:1029780000EB4313D3F8002942F00442C3F80029BE
:1029880087E7D0F8082812F4807F08D100EB4311BC
:10299800D1F8002942F00052C1F80029E8E700EB1D
:1029A8004311D1F8002942F08052C1F80029DFE72D
:1029B800D0F8084814F4807F0CD1D3F8004944F0CB
:1029C8000054C3F8004900928B8A0A78C968FFF757
:1029D8001FFF5EE7D3F8004944F08054C3F800496C
:1029E800F1E78E683544013DB5FBF6F52669164FCB
:1029F80007EAC5473E43266127698E68ADB206FBE4
:102A080005F5C5F312053D43256135E7CA68002A77
:102A18003FF435AF626132E7D0F8082812F4807FBE
:102A280006D1D3F8002B42F00052C3F8002B2AE756
:102A3800D3F8002B42F08052C3F8002B23E700BFE5
:102A48000000F8FFFFFF07E00000F81F10B4033292
:102A580094080023A34206D200F58052126841F878
:102A6800042B0133F6E708465DF8044B70470B78F2
:102A78004A78012A14D000EB4310D0F8002B002A22
:102A880006DB2BB1D0F8003B23F08043C0F8003BB5
:102A9800D0F8003B43F40013C0F8003B0020704717
:102AA80000EB4310D0F80029002A06DB2BB1D0F840
:102AB800003923F08043C0F80039D0F8003943F4D6
:102AC8000013C0F80039E9E70B784A78012A0ED0DC
:102AD80000EB4310D0F8003B23F40013C0F8003B90
:102AE800CB78023BDBB2012B15D90020704700EBF5
:102AF8004310D0F8003923F40013C0F80039CB781C
:102B0800023BDBB2012BF0D8D0F8003943F08053F8
:102B1800C0F80039E9E7D0F8003B43F08053C0F82B
:102B2800003BE2E7D0F8003823F4FE63C0F8003831
:102B3800D0F80038090101F4FE611943C0F8001803
:102B480000207047D0F8003E23F00303C0F8003E91
:102B5800D0F8043823F00203C0F804380020704786
:102B6800D0F8003E23F00303C0F8003ED0F8043844
:102B780043F00203C0F804380020704742698069B6
:102B880010407047D0F8183800F50060C069184048
:102B9800000C7047D0F8183800F50060C06918407C
:102BA80080B2704700EB4111D1F8082B00F50060A6
:102BB80040691040704710B4D0F81048D0F8343845
:102BC80001F00F02D340DB01DBB2234300EB4110DD
:102BD80000F51060806818405DF8044B7047406944
:102BE80000F0010070470000D0F80029054B1340A1
:102BF800C0F80039D0F8043843F48073C0F80438BA
:102C08000020704700F8FFFF10B4046C154B9C427D
:102C180003D9D0F8003B002B16DB0024C0F8104B7A
:102C2800D0F8104B44F40024C0F8104BD0F8104BE7
:102C380044F01804C0F8104BD0F8104B44F0C044CE
:102C4800C0F8104B012903D000205DF8044B7047F1
:102C5800C0F8142BD0F8003B43F08023C0F8003BA9
:102C6800F2E700BF0A30544F002800F0068270B522
:102C780082B00446036813F0010F29D0A74B9B6864
:102C880003F00C03042B1AD0A44B9B6803F00C032D
:102C9800082B0FD06368B3F5803F40D0002B54D188
:102CA8009E4B1A6822F480321A601A6822F4802235
:102CB8001A6039E0994B5B6813F4800FEAD0974BA0
:102CC8001B6813F4003F03D06368002B00F0D78122
:102CD800236813F0020F74D0904B9B6813F00C0F0D
:102CE8005ED08E4B9B6803F00C03082B53D0E3682F
:102CF800002B00F08980894A136843F001031360B0
:102D080000F0CEFF0546854B1B6813F0020F72D109
:102D180000F0C6FF401B0228F5D90320B4E17F4A22
:102D2800136843F48033136063682BB300F0B8FF73
:102D380005467A4B1B6813F4003FC9D100F0B0FF79
:102D4800401B6428F5D903209EE1B3F5A02F09D0D4
:102D5800724B1A6822F480321A601A6822F48022B0
:102D68001A60E1E76D4B1A6842F480221A601A680B
:102D780042F480321A60D7E700F092FF0546674BAD
:102D88001B6813F4003FA3D000F08AFF401B64289F
:102D9800F5D9032078E1614B5B6813F4800FA6D165
:102DA8005E4B1B6813F0020F03D0E368012B40F061
:102DB80068815A4A136823F0F803216943EAC1037A
:102DC8001360236813F0080F46D0636983B3534A2E
:102DD800536F43F00103536700F062FF05464F4B02
:102DE8005B6F13F0020F37D100F05AFF401B022827
:102DF800F5D9032048E1494A136823F0F80321690B
:102E080043EAC1031360DCE7444A136823F0010373
:102E1800136000F045FF0546404B1B6813F0020F96
:102E2800CFD000F03DFF401B0228F5D903202BE14D
:102E38003A4A536F23F00103536700F031FF054608
:102E4800364B5B6F13F0020F06D000F029FF401BD2
:102E58000228F5D9032017E1236813F0040F7DD069
:102E68002E4B1B6C13F0805F0BD12C4B1A6C42F06D
:102E780080521A641B6C03F080530193019B012557
:102E880000E00025264B1B6813F4807F0ED0A36852
:102E9800012B1FD0002B35D1204B1A6F22F00102D5
:102EA8001A671A6F22F004021A6718E01C4A13689E
:102EB80043F48073136000F0F3FE0646184B1B685A
:102EC80013F4807FE3D100F0EBFE801B6428F5D972
:102ED8000320D9E0114A136F43F001031367A36875
:102EE80053B300F0DDFE06460C4B1B6F13F0020FC8
:102EF80033D100F0D5FE801B41F288339842F3D9D4
:102F08000320C1E0052B0DD0044B1A6F22F00102FB
:102F18001A671A6F22F004021A67E0E700380240C5
:102F280000700040604B1A6F42F004021A671A6F73
:102F380042F001021A67D2E700F0B2FE06465A4B89
:102F48001B6F13F0020F08D000F0AAFE801B41F29D
:102F580088339842F3D9032096E0FDB9A369002B82
:102F680000F09180504A926802F00C02082A59D069
:102F7800022B19D04C4A136823F08073136000F0B9
:102F88008FFE0446484B1B6813F0007F48D000F0C2
:102F980087FE001B0228F5D9032075E0424A136C0E
:102FA80023F080531364D9E73F4A136823F08073F2
:102FB800136000F075FE05463B4B1B6813F0007F5D
:102FC80006D000F06DFE401B0228F5D903205BE017
:102FD800E369226A1343626A43EA8213A26A5208C7
:102FE800013A43EA0243E26A43EA0263226B43EA94
:102FF80002732D4A5360136843F08073136000F026
:103008004FFE0446284B1B6813F0007F06D100F0E2
:1030180047FE001B0228F5D9032035E0002033E0E5
:10302800002031E0204A5268012B2FD002F480039F
:10303800E1698B422CD102F03F03216A8B4229D1EE
:10304800616A47F6C0731340B3EB811F24D102F4C1
:103058004031A36A5B08013BB1EB034F1ED102F07C
:103068007063E16AB3EB016F1AD102F0E042236B9F
:10307800B2EB037F16D1002006E001207047012043
:1030880002E0012000E0002002B070BD0120FBE753
:103098000120F9E70120F7E70120F5E70120F3E730
:1030A8000120F1E70120EFE700380240F8B52F4B87
:1030B8009B6803F00C03042B53D0082B53D12B4BE4
:1030C8005A6802F03F025B6813F4800F28D0274B40
:1030D8005B68C3F3881358010021C01A61F100012D
:1030E8008E0146EA906687013C1A66EB0105E90005
:1030F80041EA5471E000C01841F100014B0243EA73
:10310800D0534402204619460023FDF7B1FA174B65
:103118005B68C3F3014301335B00B0FBF3F023E0CA
:10312800124B5B68C3F388135C010025E41A65F150
:103138000005AE0146EA9466A701381B66EB050157
:10314800CC0044EA5074C500E81844F100018B0231
:1031580043EA90538402204619460023FDF788FA73
:10316800D5E7034800E00348F8BD00BF0038024037
:1031780000127A000024F400002800F0A08070B546
:103188000D460446524B1B6803F00F038B420BD2CB
:103198004F4A136823F00F030B431360136803F0BF
:1031A8000F038B4240F08D80236813F0020F17D075
:1031B80013F0040F04D0474A936843F4E053936034
:1031C800236813F0080F04D0424A936843F460431D
:1031D8009360404A936823F0F003A1680B4393601F
:1031E800236813F0010F31D06368012B20D0022B24
:1031F80025D0384A126812F0020F64D035498A681F
:1032080022F0030213438B6000F04AFD0646314B5F
:103218009B6803F00C036268B3EB820F16D000F0D2
:103228003FFD801B41F288339842F0D9032045E0E6
:10323800284A126812F4003FE0D101203EE0254AF6
:10324800126812F0007FD9D1012037E0204B1B68AB
:1032580003F00F03AB420AD91D4A136823F00F038A
:103268002B431360136803F00F03AB422DD123687F
:1032780013F0040F06D0174A936823F4E053E1686B
:103288000B439360236813F0080F07D0114A936823
:1032980023F46043216943EAC1039360FFF706FF03
:1032A8000C4B9B68C3F303130B4AD35CD8400B4BFE
:1032B80018600B4B186800F0B5FC002070BD0120A9
:1032C80070470120FAE70120F8E70120F6E700BF80
:1032D800003C0240003802400C480008B4010020BD
:1032E800B0010020014B1868704700BFB4010020EE
:1032F800F0B583B00446066816F001060DD0BC4B45
:103308009A6822F400029A609A68416B0A439A60AC
:10331800436B002B00F063810026256815F4002517
:1033280011D0B34AD2F88C3023F44013E16B0B432D
:10333800C2F88C30E36BB3F5801F00F05281002B8C
:1033480000F051810025236813F4801F0FD0A84A8C
:10335800D2F88C3023F44003216C0B43C2F88C3034
:10336800236CB3F5800F00F0408103B90125236871
:1033780013F0807F00D0012613F0200F40F03A812F
:10338800236813F0100F0CD0994BD3F88C2022F03F
:103398008072C3F88C20D3F88C20A16B0A43C3F841
:1033A8008C20236813F4804F08D0914AD2F89030CB
:1033B80023F44033616E0B43C2F89030236813F452
:1033C800004F08D08A4AD2F8903023F44023A16EE7
:1033D8000B43C2F89030236813F4803F08D0844A26
:1033E800D2F8903023F44013E16E0B43C2F89030CA
:1033F800236813F4003F08D07D4AD2F8903023F4B4
:103408004003216F0B43C2F89030236813F0400F3C
:1034180008D0774AD2F8903023F00303616C0B434D
:10342800C2F89030236813F0800F08D0704AD2F8A1
:10343800903023F00C03A16C0B43C2F89030236842
:1034480013F4807F08D06A4AD2F8903023F0300312
:10345800E16C0B43C2F89030236813F4007F08D066
:10346800634AD2F8903023F0C003216D0B43C2F8B1
:103478009030236813F4806F08D05D4AD2F89030FA
:1034880023F44073616D0B43C2F89030236813F442
:10349800006F08D0564AD2F8903023F44063A16DEB
:1034A8000B43C2F89030236813F4805F08D0504A69
:1034B800D2F8903023F44053E16D0B43C2F89030BA
:1034C800236813F4005F08D0494AD2F8903023F4F7
:1034D8004043216E0B43C2F89030236813F4800FE9
:1034E80008D0434AD2F8903023F08063A16F0B4391
:1034F800C2F89030236813F4001F0DD03C4AD2F86C
:10350800903023F00063E16F0B43C2F89030E36F13
:10351800B3F1006F00F0D480236813F0080F00D0D7
:10352800012513F4802F08D0314AD2F8903023F0C7
:103538004073616F0B43C2F89030236813F4000F97
:1035480009D02B4AD2F8903023F08053D4F8801059
:103558000B43C2F89030236813F0806F09D0244AD7
:10356800D2F8903023F00053D4F884100B43C2F8FB
:103578009030236813F0006F09D01D4AD2F88C30C0
:1035880023F00073D4F888100B43C2F88C302368FA
:1035980013F0805F09D0164AD2F88C3023F080638C
:1035A800D4F88C100B43C2F88C3026B9236813F07A
:1035B800007F00F005810E4A136823F080631360D2
:1035C80000F06EFB06460A4B1B6813F0006F79D0BB
:1035D80000F066FB801B6428F5D90320F3E0012680
:1035E8009BE60126ABE60125ADE60126BDE600BF58
:1035F80000380240B94B1A6C42F080521A641B6CB6
:1036080003F080530193019BB54A136843F4807318
:10361800136000F045FB0746B14B1B6813F4807F2D
:1036280006D100F03DFBC01B6428F5D90320CAE091
:10363800AA4B1B6F13F4407315D0226B02F440722F
:103648009A4210D0A54B1A6F22F44072196F41F4B8
:1036580080311967196F21F4803119671A671B6F58
:1036680013F0010F12D1236B03F44072B2F5407FBF
:103678001DD09A4A936823F4F813936097490B6F07
:10368800226BC2F30B0213430B6779E600F008FBC9
:103698000746924B1B6F13F0020FE4D100F000FBBA
:1036A800C01B41F288339842F3D903208BE08B4842
:1036B800826822F4F8128B4919400A438260DDE7D8
:1036C800012529E7236813F0010F13D0636B8BB929
:1036D800824AD2F88430D2F88410606803F4403308
:1036E80043EA801301F070610B43A16843EA017358
:1036F800C2F88430236813F4002F03D0E26BB2F5CC
:10370800801F06D013F4801F1ED0236CB3F5800FE2
:103718001AD1724AD2F88430D2F88410606803F45F
:10372800403343EA8013E06843EA006301F0E04174
:103738000B43C2F88430D2F88C3023F01F03616A3F
:1037480001390B43C2F88C30236813F0807F11D005
:10375800624AD2F88400D2F88410666823691B0490
:1037680043EA861300F07060034301F0E0410B4325
:10377800C2F88430236813F0007F0DD06268236993
:103788001B0443EA8213E26843EA0263A26843EA3D
:103798000273524AC2F88430504A136843F0806377
:1037A800136000F07DFA06464C4B1B6813F0006F5F
:1037B80006D100F075FA801B6428F5D9032002E0D1
:1037C800012D02D0002003B0F0BD444A136823F055
:1037D8008053136000F064FA0546404B1B6813F0F1
:1037E800005F06D000F05CFA401B6428F5D903207E
:1037F800E9E7236813F4002F01D0E26B22B113F438
:10380800801F1DD0236CDBB9344AD2F88830D2F837
:103818008810606903F4403343EA8013A06943EADF
:10382800006301F0E0410B43C2F88830D2F88C30D5
:1038380023F4F853A16A013943EA0123C2F88C3012
:10384800236813F4001F03D0E36FB3F1006F31D086
:10385800236813F0080F19D0204AD2F88810D2F83C
:103868008830606903F4403343EA801301F07061E3
:103878000B43E16943EA0173C2F88830D2F88C300F
:1038880023F44033E16A0B43C2F88C30134A1368BF
:1038980043F08053136000F003FA04460F4B1B6893
:1038A80013F0005F20D100F0FBF9001B6428F5D964
:1038B800032088E7094AD2F88800D2F88810656999
:1038C800236A1B0443EA851300F07060034301F088
:1038D800E0410B43C2F88830BAE700BF0038024025
:1038E80000700040FFFCFF0F00206CE700230F2B47
:1038F80000F2E380F0B583B039E0092200E000224D
:10390800B2403A4302346D4E46F824206C4A14689B
:10391800EA4324EA05064F6817F4803F01D045EAD8
:103928000406674C2660646802EA04064F6817F4C8
:10393800003F01D045EA0406614C6660A46802EACB
:1039480004064F6817F4801F01D045EA04065C4C52
:10395800A660E46822404E6816F4001F01D045EACC
:103968000402574CE26001330F2B00F2A4800122BD
:103978009A400C6804EA020532EA0404F3D14C6860
:10398800661E112C18BF012E01D9122C12D186687F
:103998005F000324BC4026EA0406CC68BC403443DC
:1039A8008460466826EA02064C68C4F300129A400E
:1039B80032434260C7685E000324B440E24327EA0A
:1039C80004078C68B4403C43C4604C68122C18BF90
:1039D800022C13D1DF08083750F827E003F007045A
:1039E8004FEA840C0F2404FA0CF42EEA040E0C6936
:1039F80004FA0CF444EA0E0440F827400468144022
:103A08004A6802F00302B240224302604A6812F098
:103A1800805FA8D02B4A546C44F480445464526CA0
:103A280002F480420192019A9C08A61C234A52F88B
:103A3800267003F0030296000F22B24027EA02071D
:103A4800214A90423FF45BAF02F58062904222D057
:103A580002F58062904220D002F5806290421ED02A
:103A680002F5806290421CD002F5806290421AD022
:103A780002F58062904218D002F58062904216D01A
:103A880002F58062904214D002F5806290423FF4C1
:103A980034AF0A2234E7012232E7022230E7032258
:103AA8002EE704222CE705222AE7062228E7072228
:103AB80026E7082224E703B0F0BD7047003801402C
:103AC800003C014000380240000002400AB1816118
:103AD800704709048161704710B582B01B4B1A6C9E
:103AE80042F080521A641B6C03F080530193019BCF
:103AF800174A136843F48033136000F0D1F8044682
:103B0800134B5B6813F4803F08D100F0C9F8001B21
:103B1800B0F57A7FF4D9032002B010BD0C4A1368BF
:103B280043F40033136000F0BBF80446084B5B68AD
:103B380013F4003F07D100F0B3F8001BB0F57A7F0B
:103B4800F4D90320E8E70020E6E700BF0038024088
:103B5800007000400649CB6823F4E0631B041B0C8B
:103B6800000200F4E0600343024A1A43CA60704747
:103B780000ED00E00000FA0530B4154BDB68C3F334
:103B88000223C3F10704042C28BF04241D1D062D9D
:103B980014D9033B4FF0FF3505FA04F421EA040178
:103BA800994005FA03F322EA03031943002807DBC7
:103BB8000901C9B2074B195430BC70470023E9E723
:103BC80000F00F000901C9B2034B1954F4E700BF14
:103BD80000ED00E000E400E014ED00E0002807DB61
:103BE80000F01F02400901239340024A42F82030A6
:103BF800704700BF00E100E00138B0F1807F0AD2D1
:103C0800064B5860064AF02182F82310002098607D
:103C180007221A6070470120704700BF10E000E0DB
:103C280000ED00E010B504460E4B18784FF47A7397
:103C3800B3FBF0F30C4A1068B0FBF3F0FFF7DCFFBE
:103C480068B90F2C01D901200AE0002221464FF063
:103C5800FF30FFF791FF054B1C60002000E00120BA
:103C680010BD00BFAC010020B4010020B00100204D
:103C780008B50320FFF76EFF0020FFF7D3FFFDF71D
:103C880085FC002008BD0000034A1168034B1B781F
:103C98000B441360704700BFC42A0020AC01002009
:103CA800014B1868704700BFC42A002038B5044685
:103CB800FFF7F6FF0546B4F1FF3F02D0044B1B782F
:103CC8001C44FFF7EDFF401BA042FAD338BD00BFEC
:103CD800AC01002010B40F4AD2F8883043F47003C6
:103CE800C2F888300C4B196841F0010119600020B6
:103CF80098601C6809492140196009495960196888
:103D080021F480211960D8604FF0006393605DF85A
:103D1800044B704700ED00E000380240FFFFF6FE5C
:103D280010300024C0B108B50346D0F8B80210B16D
:103D38000020C3F8B802D3F8CC0210B10020C3F8B1
:103D4800CC0209B1C3F8B412012183F89C121A708D
:103D58001846FDF767F808BD0320704710B582B014
:103D68000023ADF8063059B10446C0F8B8128B6A82
:103D78000DF106009847C4F8CC02002002B010BD2F
:103D88000320FBE708B5FDF7E7F808BD08B5D0F84C
:103D9800B83213B11B68984708BD0320FCE708B583
:103DA800D0F8B8320BB15B689847002008BD38B529
:103DB800044600F2AA25284600F02DF90123C4F88C
:103DC8009432B4F8B032C4F8983294F8AA1201F0D8
:103DD8001F03012B0DD0022B10D02BB101F0800155
:103DE8002046FDF7D4F803E02946204600F0DEFA25
:103DF80038BD2946204600F011FBF9E72946204640
:103E080000F040FBF4E738B504460D4631BB1346D5
:103E1800D0F89422032A01D0084638BDD0F85C11A6
:103E2800D0F8602191420CD8D0F8B8321B691BB188
:103E380090F89C22032A0FD0204600F073FC2846F5
:103E4800EBE7891AC0F85C118A4228BF0A4619466E
:103E580000F060FC2846E0E79847EDE7D0F8B83274
:103E68009B692BB190F89C22032A03D19847D4E789
:103E78000320D2E70320D0E738B504460D460029D1
:103E880048D11346D0F89422022A05D094F8A032DB
:103E9800012B3AD0284638BDC269016A8A4211D836
:103EA8008A421BD0D4F8B832DB681BB194F89C2244
:103EB800032A27D080212046FDF769F8204600F024
:103EC8003CFCE3E7521AC261194600F00CFC0023DF
:103ED8001A4619462046FDF77AF8D7E783699942CA
:103EE800E0D8D0F898229342DCD20022114600F0A4
:103EF800FAFB0021C4F898120B460A462046FDF743
:103F080066F8C3E720469847D4E7002384F8A03230
:103F18002846C0E7D0F8B8325B692BB190F89C22EC
:103F2800032A03D19847B6E70320B4E70320B2E792
:103F380070B50446012380F89C320023C0F89432FF
:103F48004360C0F8A432D0F8BC3223B1D0F8B832FC
:103F58005B68002198474023002211462046FDF760
:103F680003F80126A4F864614025C4F860512B4683
:103F7800002280212046FCF7F7FFA6842562002056
:103F880070BD01740020704790F89C3280F89D3213
:103F9800042380F89C320020704790F89C32042B50
:103FA80001D00020704790F89D3280F89C32F8E7E5
:103FB80008B590F89C32032B01D0002008BDD0F83A
:103FC800B832DB69002BF8D09847F6E70020704735
:103FD800002070470020704708B5012380F89C3204
:103FE800D0F8B83213B15B6801799847002008BD52
:103FF800034600201A781AB10130C0B20133F9E73C
:10400800704708B54B88012B00D008BDC0F8A43212
:1040180000F088FBF9E70B7803704B7843708B78D6
:10402800CA7843EA022343800B794A7943EA022398
:1040380083808B79CA7943EA0223C380704710B51D
:1040480004468021FCF7A3FF00212046FCF79FFFD0
:1040580010BD30B583B004460D460023ADF80630D8
:104068004A88130A013B0E2B00F2BC80DFE803F0FC
:10407800153044BABA9EABBABABABABABABA0800D4
:10408800D0F8B432DB6923B10DF10601007C984702
:104098000AE02946FFF7D3FF18E0D0F8B4321B68CE
:1040A8000DF10601007C9847EA88002A00F0A380F9
:1040B800BDF80630002B00F099809A4228BF1A46B6
:1040C800ADF806200146204600F000FB03B030BDE5
:1040D800037C43B9D0F8B8329B6A0DF106009847C3
:1040E80002234370E0E7D0F8B832DB6A0DF106002E
:1040F800984702234370D7E7D2B2052A52D8DFE89F
:1041080002F003101D2A3744D0F8B4325B6823B19B
:104118000DF10601007C9847C6E72946FFF78FFF97
:10412800D4E7D0F8B4329B6823B10DF10601007CC6
:104138009847B9E72946FFF782FFC7E7D0F8B432B6
:10414800DB6823B10DF10601007C9847ACE72946EE
:10415800FFF775FFBAE7D0F8B4321B6923B10DF148
:104168000601007C98479FE72946FFF768FFADE7FF
:10417800D0F8B4325B6923B10DF10601007C984791
:1041880092E72946FFF75BFFA0E7D0F8B4329B69B6
:1041980023B10DF10601007C984785E72946FFF712
:1041A8004EFF93E72946FFF74AFF8FE7037C33B9B1
:1041B800D0F8B8325B6B0DF10600984774E72946D2
:1041C800FFF73DFF82E7037C43B9D0F8B8321B6B99
:1041D8000DF1060098470723437065E72946FFF766
:1041E8002EFF73E72946FFF72AFF6FE72946204687
:1041F800FFF725FF6AE7204600F094FA66E738B52E
:1042080004468B88F3B9CB88E3B94B887F2B19D840
:1042180003F07F0590F89C32032B0CD080F89E5257
:104228002946FCF7C4FE204600F07CFA35B102238B
:1042380084F89C3209E0FFF702FF06E0012384F8C6
:104248009C3202E02046FFF7FAFE38BD70B50446FE
:104258000E468D782D4B1D70012D0FD890F89C328D
:10426800022B0FD0032B23D0FFF7E9FE274B197839
:104278002046FFF794FD0325284670BDFFF7DFFEB3
:104288000325F9E78DB145602946FFF77FFD05460F
:1042980020B131462046FFF7D2FEEDE7204600F078
:1042A80041FA032384F89C32E6E700F03BFAE3E79F
:1042B800CDB141688D4225D0C9B2FFF770FD134BCF
:1042C800197861602046FFF761FD0546B0B13146B7
:1042D8002046FFF7B4FE21792046FFF760FD022350
:1042E80084F89C32C8E7022380F89C32456029464E
:1042F800FFF755FD204600F015FABDE7204600F00F
:1043080011FAB9E700F00EFA0025B5E7E10100203F
:1043180008B5CB88012B0AD190F89C32022B09D919
:10432800032B09D10122011D00F0D0F901E0FFF7AC
:1043380086FE08BD5BB213B9FFF781FEF9E70146B7
:10434800002341F8083F012200F0C0F9F1E708B561
:1043580090F89C32013B022B12D8CB88022B0CD14F
:104368000123C360D0F8A4320BB10323C360022237
:1043780000F10C0100F0AAF908BDFFF760FEFBE7A9
:10438800FFF75DFEF8E708B590F89C32013B022B79
:1043980009D84B88012B00D008BD0023C0F8A432EF
:1043A80000F0C0F9F8E7FFF74AFEF5E738B50C78F2
:1043B80004F06004202C06D0402C04D054B1FFF740
:1043C8003EFE002404E0D0F8B8329B6898470446C3
:1043D800204638BD4D78092D1DD8DFE805F01219A3
:1043E8001C161C08051C0F0BFFF733FEF0E7FFF740
:1043F80006FFEDE7FFF72AFF0446E9E7FFF788FF26
:10440800E6E7FFF7A4FF2C46E2E7FFF7FAFDDFE750
:10441800FFF7B9FFDCE7FFF712FED9E770B50546ED
:104428000C460B7803F06003202B07D0402B05D0F7
:1044380023B1FFF704FE0026304670BD95F89C3284
:10444800013B022B18D82379022B0FD8D5F8B832A4
:104458009B682146284698470646E388002BEBD1FF
:104468000028E9D1284600F05DF9E5E7214628460D
:10447800FFF7E5FD0026DFE721462846FFF7DFFDC9
:104488000026D9E7F8B506460D468B880C7804F067
:104498006004202C08D0D9B2402C05D06CB1294634
:1044A800FFF7CDFD002406E0D6F8B8329B68294610
:1044B8003046984704462046F8BD6F78012F37D01C
:1044C800032F05D0002F63D02946FFF7B8FDF2E788
:1044D80090F89C32022B05D0032B16D02946FFF703
:1044E800AEFDE8E7B1F1800318BF0123002908BF3A
:1044F800002333B1FCF74BFD80213046FCF747FD24
:10450800D9E72946FFF79BFDD5E76B884BB9B1F191
:10451800800318BF0123002908BF00230BB1EB88D3
:104528001BB1304600F0FEF8C5E7FCF730FDF8E7B0
:1045380090F89C32022B05D0032B16D02946FFF7A2
:104548007EFDB8E7B1F1800318BF0123002908BF39
:10455800002333B1FCF71BFD80213046FCF717FD23
:10456800A9E72946FFF76BFDA5E76B88002BA2D1C9
:1045780011F07F0F09D1304600F0D4F8D6F8B832E0
:104588009B6829463046984795E7FCF708FDF2E70F
:1045980090F89C22022A06D0032A2ED02946FFF73B
:1045A8004EFD3C4687E7B1F1800218BF0122002981
:1045B80008BF00229AB913F0800F15D101F07F01CE
:1045C80001EB8101890001F5A87101440431002340
:1045D8000B600222304600F079F83C466BE729462A
:1045E800FFF72DFD3C4666E701F07F0101EB8101F5
:1045F8008900103101440431E9E75BB2002B24DB68
:1046080001F00F0202EB820200EB8202B2F8642191
:104618004AB3002B2CDB01F07F0303EB83039C00E0
:1046280004F5A87434440434802914BF00230123FA
:10463800002908BF012323B3002323600222214657
:10464800304600F043F83C4635E701F00F0202EB34
:10465800820200EB8202928C002ADAD12946FFF707
:10466800EEFC3C4627E72946FFF7E9FC3C4622E7F3
:1046780001F07F0303EB83039C00103434440434BB
:10468800D2E73046FCF70EFC10B101232360D5E7D2
:1046980000232360D2E7C0B170B50D461646044624
:1046A800FFF7A6FC013040003080287003236B70B0
:1046B8000223227842B1EA5401345A1CD2B20021B2
:1046C800A9540233DBB2F4E770BD704710B5134646
:1046D8000222C0F894228361C3610A460021FCF7D4
:1046E8006EFC002010BD08B513460A460021FCF7F1
:1046F80066FC002008BD10B513460322C0F89422BA
:10470800C0F85831C0F85C310A460021FCF75FFC5C
:10471800002010BD08B513460A460021FCF757FCD7
:10472800002008BD08B50423C0F8943200231A46B7
:104738001946FCF744FC002008BD08B50523C0F85D
:10474800943200231A461946FCF741FC002008BDA4
:10475800DFF834D00D480E490E4A002302E0D45841
:10476800C4500433C4188C42F9D30B4A0B4C0023B1
:1047780001E013600432A242FBD3FFF7ABFAFBF768
:104788007BFDFCF737FA7047000008200000002086
:10479800B80100202C480008B8010020CC2A0020CD
:1047A800FEE70000F8B500BFF8BC08BC9E4670479D
:0C47B800F8B500BFF8BC08BC9E46704776
:1047C40053544D3332205669727475616C20436FB3
:1047D4006D506F727400000053544D6963726F65BD
:1047E4006C656374726F6E696373000043444320A5
:1047F400436F6E666967000043444320496E7465E5
:1048040072666163650000000000000000000000A3
:08481400010203040607080974
:08481C008CBEFF7F01000000CB
:044824006102000825
:044828003902000849
:10482C000400002000000000000000000000000058
:10483C00000000000000000000000000000000006C
:10484C00000000000000000000000000000000005C
:10485C00000000000000000000000000000000004C
:10486C00000000000000000000000000000000003C
:10487C00000000000000000000000000000000002C
:10488C0000000000E90F0008F50F0008B110000847
:10489C008D10000879100008CD100008F1100008E8
:1048AC0001100008050F0C000107100202000000A7
:1048BC00120101020202004083044057000201026F
:1048CC0003010000040309041A03000000000000A7
:1048DC0000000000000000000000000000000000CC
:1048EC00000000008B12000839120008C5110008E6
:1048FC000000000035110008151100088111000896
:10490C000000000000000000000000005D11000825
:10491C005D110008691100087511000809028D006D
:10492C00040100C032080B0002020201020904005B
:10493C000001020201000524001001052401000100
:10494C00042402020524060001070582030800FF67
:10495C0009040100020A00000007050102400000E2
:10496C0007058102400000080B0202020201020945
:10497C0004020001020201000524001001052401BB
:10498C00000304240202052406020307058403081D
:10499C0000FF09040300020A00000007050302409F
:1049AC000000070583024000000000000A06000218
:1049BC00000000400100000071140008F31300080F
:1049CC00F713000845140008191400080100000032
:0849DC00100000000024F400AB
:04000005080047594F
:00000001FF
