:020000040800F2
:1000000000000820D5090008390300083B03000858
:100010003D0300083F030008410300080000000002
:100020000000000000000000000000004303000882
:1000300045030008000000004703000849030008CA
:10004000250A0008250A0008250A0008250A0008D4
:10005000250A0008250A0008250A0008250A0008C4
:10006000250A0008250A0008250A0008250A0008B4
:10007000250A0008250A0008250A0008250A0008A4
:10008000250A0008250A0008250A0008250A000894
:10009000250A0008250A0008250A0008250A000884
:1000A000250A0008250A0008250A0008250A000874
:1000B000250A0008250A0008250A0008250A000864
:1000C000250A0008250A0008250A0008250A000854
:1000D000250A0008250A0008250A0008250A000844
:1000E000250A0008250A0008250A0008250A000834
:1000F000250A0008250A0008250A0008250A000824
:10010000250A0008250A0008250A0008250A000813
:10011000250A0008250A0008250A0008250A000803
:10012000250A0008250A0008250A0008250A0008F3
:10013000250A0008250A0008250A0008250A0008E3
:10014000250A0008250A0008250A000851030008AE
:10015000250A0008250A0008250A0008250A0008C3
:10016000250A0008250A0008250A0008250A0008B3
:10017000250A0008250A0008250A000800000000DA
:10018000250A0008250A0008250A0008250A000893
:10019000250A0008250A0008250A0008250A000883
:1001A000250A0008250A0008250A0008250A000873
:1001B000250A0008250A0008250A0008250A000863
:1001C000250A0008250A000800000000250A00088A
:1001D000250A0008250A0008250A0008250A000843
:1001E000250A0008250A0008250A0008250A000833
:0801F000250A0008250A000899
:1001F8000348044B834202D0034B03B118477047AE
:100208000C0000200C0000200000000005480649F2
:100218000B1AD90F01EBA301491002D0034B03B10C
:10022800184770470C0000200C0000200000000058
:1002380010B5064C237843B9FFF7DAFF044B13B126
:100248000448AFF300800123237010BD0C00002088
:1002580000000000280A000808B5044B1BB1044937
:100268000448AFF30080BDE80840CFE70000000075
:1002780010000020280A000870B50D4E0D4D761BA1
:10028800B61006D00024013455F8043B9847A6421E
:10029800F9D1094E094D761B00F0C2FBB61006D005
:1002A8000024013455F8043B9847A642F9D170BDA3
:1002B800400A0008400A0008440A0008400A0008EA
:1002C80082B00B4B1A6C42F080521A641B6C03F01C
:1002D80080530093009B074B1A6842F440421A600F
:1002E8001B6803F440430193019B02B0704700BFB1
:1002F800003802400070004008B500F015FBFFF719
:10030800DFFF034800F050FB00F03AF8FCE700BFBD
:100318003404002008B5D0F8C40200F087F80020A3
:1003280008BD08B5D0F8C40200F095F8002008BD53
:100338007047FEE7FEE7FEE7FEE770477047704745
:1003480008B500F0FDFA08BD70470000064B074AE3
:100358001A603C229A600122DA6000221A61FE21AA
:100368005961DA611A62704704070020005400409E
:10037800014B024A1A6070470407002000540040ED
:1003880008B5174B1B78012B08D0164B1B78012B8F
:100398000CD0154B1B78012B16D008BD104B002232
:1003A8001A70FFF7E5FFFFF7D1FFEEE70F4B1B7859
:1003B8007F2BEED00B4B00221A7001220B490C4BFD
:1003C800186800F0F5FAE4E7074B00221A70094BA9
:1003D8001A680949064B186800F0EAFADDE700BF19
:1003E800000000202E0400202D0400202C040020F2
:1003F80030040020280000202C00002082B00A4B86
:100408001A6C42F080521A641A6C02F08052009200
:10041800009A5A6C42F480425A645B6C03F480433D
:100428000193019B02B070470038024090F8BC333A
:10043800012B0ED010B50446012380F8BC330068A8
:1004480000F034F8206800F0E1F9002084F8BC03DB
:1004580010BD0220704738B501F00F04C4EBC40189
:100468008900383101440431C4EBC40500EB85052B
:10047800AA642B6500236B65012385F83D3085F858
:100488003C400369012B06D05CB9DAB2006800F081
:1004980013F8002038BDC4EBC40500EB8505EA64F9
:1004A800F2E7DAB2006800F0A7F8F2E7836843F0F1
:1004B800010383600020704770B40B784C78012CDE
:1004C80024D000EB431000F530631D693E4C2C40EE
:1004D8001C611D693D4C2C401C614C690CB18C6839
:1004E8004C611C6944F400241C611C698D68C5F3C7
:1004F80012052C431C61012A61D0D0F8003B43F05F
:100508000443C0F8003B002070BC70474C695CBBDA
:1005180000EB4314D4F810692C4D3540C4F8105939
:10052800D4F8105945F40025C4F81059D4F81069C6
:10053800254D3540C4F81059012A31D000EB43133A
:10054800D3F8002942F00442C3F800294B69002B74
:10055800D9D0D0F834380A7802F00F0101228A4045
:100568001343C0F83438CEE700EB431404F51064A5
:100578002669154D354025612669144D354025619C
:100588004E698D68AE4200D94D61256945F4002554
:10059800256125694E69C6F3120635432561CBE707
:1005A8000A691AB100EB4311C1F8142900EB431092
:1005B800D0F8002942F00442C0F80029A3E7CA682D
:1005C800002A9AD05A6198E70000F8FFFFFF07E079
:1005D80070B49DF80C4064B903339D08AC4208D24E
:1005E80000EB023303F5805351F8046B1E600134AD
:1005F800F4E7002070BC7047F0B583B00B784C78F6
:10060800012C29D000EB431303F5306426697C4D97
:100618003540256126697B4D354025614D69002DA2
:1006280040F0BF8025698E68C6F312063543256100
:10063800256945F400252561012A00F0C780CA789C
:10064800012A00F0C980D3F8002B42F00442C3F815
:10065800002B002003B0F0BD4C6974BB00EB4314C1
:10066800D4F81069674D3540C4F81059D4F81059BA
:1006780045F40025C4F81059D4F81069604D354088
:10068800C4F81059012A4AD000EB4313D3F80049A3
:1006980044F00444C3F80049CC78012C68D04B6975
:1006A800002BD6D0D0F83428097801F00F040121A6
:1006B800A1400A43C0F83428CBE700EB4314D4F830
:1006C80010694F4D3540C4F81059D4F810694D4D94
:1006D8003540C4F81059D4F810694D698F683D4405
:1006E800013DB5FBF7F5484F07EAC5453543C4F862
:1006F8001059D4F810594E69C6F312063543C4F898
:10070800105904F51064CD78012DBBD1256925F069
:10071800C0452561256945F000552561B2E70A699C
:100728001AB100EB4314C4F81429CA78012A08D076
:1007380000EB4313D3F8002942F00442C3F8002920
:1007480087E7D0F8082812F4807F08D100EB43111E
:10075800D1F8002942F00052C1F80029E8E700EB7F
:100768004311D1F8002942F08052C1F80029DFE78F
:10077800D0F8084814F4807F0CD1D3F8004944F02D
:100788000054C3F8004900928B8A0A78C968FFF7B9
:100798001FFF5EE7D3F8004944F08054C3F80049CE
:1007A800F1E78E683544013DB5FBF6F52669164F2D
:1007B80007EAC5473E43266127698E68ADB206FB46
:1007C80005F5C5F312053D43256135E7CA68002ADA
:1007D8003FF435AF626132E7D0F8082812F4807F21
:1007E80006D1D3F8002B42F00052C3F8002B2AE7B9
:1007F800D3F8002B42F08052C3F8002B23E700BF48
:100808000000F8FFFFFF07E00000F81FD0F8003EE7
:1008180023F00303C0F8003ED0F8043823F00203A5
:10082800C0F80438002070470649CB6823F4E06319
:100838001B041B0C000200F4E0600343024A1A4345
:10084800CA60704700ED00E00000FA0530B4154BAF
:10085800DB68C3F30223C3F10704042C28BF042474
:100868001D1D062D14D9033B4FF0FF3505FA04F47E
:1008780021EA0401994005FA03F322EA0303194324
:10088800002807DB0901C9B2074B195430BC70476F
:100898000023E9E700F00F000901C9B2034B19541E
:1008A800F4E700BF00ED00E000E400E014ED00E034
:1008B8000138B0F1807F0AD2064B5860064AF02111
:1008C80082F823100020986007221A6070470120E0
:1008D800704700BF10E000E000ED00E010B50446EE
:1008E8000E4B18784FF47A73B3FBF0F30C4A106888
:1008F800B0FBF3F0FFF7DCFF68B90F2C01D901203A
:100908000AE0002221464FF0FF30FFF79FFF054B1A
:100918001C60002000E0012010BD00BF0100002085
:10092800080000200400002008B50320FFF77CFF22
:100938000020FFF7D3FFFFF761FD002008BD00008E
:10094800034A1168034B1B780B441360704700BFC0
:10095800500700200100002010B40F4AD2F8883058
:1009680043F47003C2F888300C4B196841F0010158
:100978001960002098601C680949214019600949DC
:100988005960196821F480211960D8604FF000631C
:1009980093605DF8044B704700ED00E000380240BA
:1009A800FFFFF6FE1030002408B5FFF7B3FC08BDC2
:1009B80010B513460222C0F894228361C3610A4627
:1009C8000021FFF7AEFC002010BD0000DFF834D096
:1009D8000D480E490E4A002302E0D458C45004338F
:1009E800C4188C42F9D30B4A0B4C002301E0136066
:1009F8000432A242FBD3FFF7AFFFFFF73DFCFFF73E
:100A08007BFC704700000820000000200C0000203C
:100A1800480A00080C00002054070020FEE70000E8
:100A2800F8B500BFF8BC08BC9E467047F8B500BFD3
:080A3800F8BC08BC9E467047A3
:040A40006102000847
:040A4400390200086B
:0C0A480001010000100000000024F40078
:04000005080009D511
:00000001FF
